{
  "contractName": "HelloWorld",
  "abi": [
    {
      "inputs": [],
      "stateMutability": "nonpayable",
      "type": "constructor"
    },
    {
      "inputs": [
        {
          "internalType": "address",
          "name": "",
          "type": "address"
        }
      ],
      "name": "balance",
      "outputs": [
        {
          "internalType": "uint256",
          "name": "",
          "type": "uint256"
        }
      ],
      "stateMutability": "view",
      "type": "function",
      "constant": true
    },
    {
      "inputs": [],
      "name": "getName",
      "outputs": [
        {
          "internalType": "string",
          "name": "",
          "type": "string"
        }
      ],
      "stateMutability": "view",
      "type": "function",
      "constant": true
    },
    {
      "inputs": [
        {
          "internalType": "string",
          "name": "_name",
          "type": "string"
        }
      ],
      "name": "setName",
      "outputs": [],
      "stateMutability": "nonpayable",
      "type": "function"
    }
  ],
  "bytecode": "0x60806040523480156200001157600080fd5b506040518060400160405280600581526020017f46696c6970000000000000000000000000000000000000000000000000000000815250600090816200005891906200031f565b506103e8600160003373ffffffffffffffffffffffffffffffffffffffff1673ffffffffffffffffffffffffffffffffffffffff1681526020019081526020016000208190555062000406565b600081519050919050565b7f4e487b7100000000000000000000000000000000000000000000000000000000600052604160045260246000fd5b7f4e487b7100000000000000000000000000000000000000000000000000000000600052602260045260246000fd5b600060028204905060018216806200012757607f821691505b6020821081036200013d576200013c620000df565b5b50919050565b60008190508160005260206000209050919050565b60006020601f8301049050919050565b600082821b905092915050565b600060088302620001a77fffffffffffffffffffffffffffffffffffffffffffffffffffffffffffffffff8262000168565b620001b3868362000168565b95508019841693508086168417925050509392505050565b6000819050919050565b6000819050919050565b600062000200620001fa620001f484620001cb565b620001d5565b620001cb565b9050919050565b6000819050919050565b6200021c83620001df565b620002346200022b8262000207565b84845462000175565b825550505050565b600090565b6200024b6200023c565b6200025881848462000211565b505050565b5b8181101562000280576200027460008262000241565b6001810190506200025e565b5050565b601f821115620002cf57620002998162000143565b620002a48462000158565b81016020851015620002b4578190505b620002cc620002c38562000158565b8301826200025d565b50505b505050565b600082821c905092915050565b6000620002f460001984600802620002d4565b1980831691505092915050565b60006200030f8383620002e1565b9150826002028217905092915050565b6200032a82620000a5565b67ffffffffffffffff811115620003465762000345620000b0565b5b6200035282546200010e565b6200035f82828562000284565b600060209050601f83116001811462000397576000841562000382578287015190505b6200038e858262000301565b865550620003fe565b601f198416620003a78662000143565b60005b82811015620003d157848901518255600182019150602085019450602081019050620003aa565b86831015620003f15784890151620003ed601f891682620002e1565b8355505b6001600288020188555050505b505050505050565b61078480620004166000396000f3fe608060405234801561001057600080fd5b50600436106100415760003560e01c806317d7de7c14610046578063c47f002714610064578063e3d670d714610080575b600080fd5b61004e6100b0565b60405161005b91906101fd565b60405180910390f35b61007e60048036038101906100799190610368565b610142565b005b61009a6004803603810190610095919061040f565b610155565b6040516100a79190610455565b60405180910390f35b6060600080546100bf9061049f565b80601f01602080910402602001604051908101604052809291908181526020018280546100eb9061049f565b80156101385780601f1061010d57610100808354040283529160200191610138565b820191906000526020600020905b81548152906001019060200180831161011b57829003601f168201915b5050505050905090565b8060009081610151919061067c565b5050565b60016020528060005260406000206000915090505481565b600081519050919050565b600082825260208201905092915050565b60005b838110156101a757808201518184015260208101905061018c565b60008484015250505050565b6000601f19601f8301169050919050565b60006101cf8261016d565b6101d98185610178565b93506101e9818560208601610189565b6101f2816101b3565b840191505092915050565b6000602082019050818103600083015261021781846101c4565b905092915050565b6000604051905090565b600080fd5b600080fd5b600080fd5b600080fd5b7f4e487b7100000000000000000000000000000000000000000000000000000000600052604160045260246000fd5b610275826101b3565b810181811067ffffffffffffffff821117156102945761029361023d565b5b80604052505050565b60006102a761021f565b90506102b3828261026c565b919050565b600067ffffffffffffffff8211156102d3576102d261023d565b5b6102dc826101b3565b9050602081019050919050565b82818337600083830152505050565b600061030b610306846102b8565b61029d565b90508281526020810184848401111561032757610326610238565b5b6103328482856102e9565b509392505050565b600082601f83011261034f5761034e610233565b5b813561035f8482602086016102f8565b91505092915050565b60006020828403121561037e5761037d610229565b5b600082013567ffffffffffffffff81111561039c5761039b61022e565b5b6103a88482850161033a565b91505092915050565b600073ffffffffffffffffffffffffffffffffffffffff82169050919050565b60006103dc826103b1565b9050919050565b6103ec816103d1565b81146103f757600080fd5b50565b600081359050610409816103e3565b92915050565b60006020828403121561042557610424610229565b5b6000610433848285016103fa565b91505092915050565b6000819050919050565b61044f8161043c565b82525050565b600060208201905061046a6000830184610446565b92915050565b7f4e487b7100000000000000000000000000000000000000000000000000000000600052602260045260246000fd5b600060028204905060018216806104b757607f821691505b6020821081036104ca576104c9610470565b5b50919050565b60008190508160005260206000209050919050565b60006020601f8301049050919050565b600082821b905092915050565b6000600883026105327fffffffffffffffffffffffffffffffffffffffffffffffffffffffffffffffff826104f5565b61053c86836104f5565b95508019841693508086168417925050509392505050565b6000819050919050565b600061057961057461056f8461043c565b610554565b61043c565b9050919050565b6000819050919050565b6105938361055e565b6105a761059f82610580565b848454610502565b825550505050565b600090565b6105bc6105af565b6105c781848461058a565b505050565b5b818110156105eb576105e06000826105b4565b6001810190506105cd565b5050565b601f82111561063057610601816104d0565b61060a846104e5565b81016020851015610619578190505b61062d610625856104e5565b8301826105cc565b50505b505050565b600082821c905092915050565b600061065360001984600802610635565b1980831691505092915050565b600061066c8383610642565b9150826002028217905092915050565b6106858261016d565b67ffffffffffffffff81111561069e5761069d61023d565b5b6106a8825461049f565b6106b38282856105ef565b600060209050601f8311600181146106e657600084156106d4578287015190505b6106de8582610660565b865550610746565b601f1984166106f4866104d0565b60005b8281101561071c578489015182556001820191506020850194506020810190506106f7565b868310156107395784890151610735601f891682610642565b8355505b6001600288020188555050505b50505050505056fea26469706673582212201aedc2d1d057335a8d0cb4d8f27bd56730d743ace81793c89129249e99d16dc564736f6c63430008100033",
  "immutableReferences": {},
  "source": "// SPDX-License-Identifier: MIT\r\npragma solidity >=0.4.22;\r\n\r\ncontract HelloWorld {\r\n\r\n  string private name;\r\n  mapping (address => uint256) public balance;\r\n\r\n  constructor() public {\r\n    name = \"Filip\";\r\n    balance[msg.sender] = 1000;\r\n  }\r\n\r\n  function getName() public view returns (string memory) {\r\n    return name;\r\n  }\r\n\r\n  function setName(string memory _name) public {\r\n    name = _name;\r\n  }\r\n}",
  "sourcePath": "c:\\Users\\jv\\Documents\\GitHub\\windows-ethereum-blockchain-development\\contracts\\Hello.sol",
  "compiler": {
    "name": "solc",
    "version": "0.8.16+commit.07a7930e.Emscripten.clang"
  },
  "schemaVersion": "3.4.9",
  "updatedAt": "2022-08-14T17:44:45.458Z",
  "networkType": "ethereum",
  "devdoc": {
    "kind": "dev",
    "methods": {},
    "version": 1
  },
  "userdoc": {
    "kind": "user",
    "methods": {},
    "version": 1
  }
}